:02000002B0004C
:1040000000400B0010530B00000006000C000502DE
:084010000401E50C00000000B2
:0440180008500B0041
:10401C0009480A49884208B505D0094A824202D0AB
:10402C00121A00F039FF0748074A0021121A00F053
:10403C0041FF014808BD00BF34E6032078520B0055
:10404C00A4E60320A4E60320EDE7032070B5074E99
:10405C00074C00F01BFDA41BA4080025AC4200D1AA
:10406C0070BD56F8043B98470135F7E724520B0016
:10407C0048520B0000F013B808B500F01BF8BDE86F
:10408C00084000F0BBBC00F0F3B900F0F9B90078BF
:10409C00B0FA80F04009704701230370704708B5EF
:1040AC0000210E2000F0A2FEBDE8084001210720EF
:1040BC0000F09CBE13B50E2000F0A9FE0D4B18604D
:1040CC000D4B1A688242B8BF02461A600B4B1C6833
:1040DC00A0420146A8BF21461960FF23009300238C
:1040EC0000F05EFC0146072002B0BDE8104000F075
:1040FC00A5BE00BFB4E60320B0E6032034E60320DF
:10410C0008B50120002100F097F9064B0022C3E905
:10411C000022A2F580329A60BDE80840012000F030
:10412C0083B900BFA4E6032008B5024B1B681B68CB
:10413C00019308BD4C02030008B5024B1B681B69B8
:10414C00019308BD4C02030008B5024B1B685B6968
:10415C00019308BD4C02030008B5024B1B689B6918
:10416C00019308BD4C02030008B5024B1B68DB69C8
:10417C00019308BD4C02030008B5024B1B681B6A77
:10418C00019308BD4C02030008B5024B1B681B6A67
:10419C00019308BD2802030008B5024B1B685B6A3B
:1041AC00019308BD2802030008B5024B1B689B6AEB
:1041BC00019308BD2802030008B5024B1B68DB6A9B
:1041CC00019308BD2802030008B5024B1B681B6B4A
:1041DC00019308BD2802030008B5024B1B685B6BFA
:1041EC00019308BD2802030008B5024B1B681B6C29
:1041FC00019308BD2802030008B5024B1B68DB695C
:10420C00019308BD3002030008B5024B1B681B6A02
:10421C00019308BD3002030008B5024B1B68DB6834
:10422C00019308BD3C02030008B5024B1B681B69D7
:10423C00019308BD3C02030008B5024B1B685B6987
:10424C00019308BD3C02030008B5024B1B689B6937
:10425C00019308BD3C02030008B5024B1B68DB69E7
:10426C00019308BD3C02030008B5024B1B681B6A96
:10427C00019308BD3C02030008B5024B1B689B6A06
:10428C00019308BD3C02030008B5024B1B681B6C74
:10429C00019308BD3C02030008B5024B1B685B6927
:1042AC00019308BD6402030008B5024B1B685B6CEC
:1042BC00019308BD4802030008B5024B1B685B68FC
:1042CC00019308BD1802030008B5024B1B685B691B
:1042DC00019308BD1802030008B5024B1B685B680C
:1042EC00019308BD2C02030008B5024B1B689B68A8
:1042FC00019308BD2C02030008B5024B1B68DB6858
:10430C00019308BD2C02030008B5024B1B689B6A85
:10431C00019308BD2C02030008B5024B1B681B6BF4
:10432C00019308BD2C02030008B5024B1B689B6F60
:10433C00019308BD2C02030008B5024B1B689B6857
:10434C00019308BD6802030008B5024B1B68DB68CB
:10435C00019308BD6802030008B5024B1B68DB6BB8
:10436C00019308BD4402030008B5024B1B685B684F
:10437C00019308BD4002030008B5024B1B689B6803
:10438C00019308BD4002030008B5024B1B68DB68B3
:10439C00019308BD4002030008B5024B1B681B6962
:1043AC00019308BD4002030008B5024B1B685B6912
:1043BC00019308BD4002030008B5024B1B689B69C2
:1043CC00019308BD4002030008B5024B1B68DB6972
:1043DC00019308BD4002030008B5024B1B681B6A21
:1043EC00019308BD4002030008B5024B1B681B6B10
:1043FC00019308BD4002030008B5024B1B685B6BC0
:10440C00019308BD4002030008B5024B1B681B6CEE
:10441C00019308BD4002030008B5024B1B685B6C9E
:10442C00019308BD4002030008B5024B1B685B6892
:10443C00019308BD2002030008B5024B1B68DB6A20
:10444C00019308BD2002030008B5034B1B68D3F889
:10445C008830019308BD00002002030008B5034B0F
:10446C001B68D3F89430019308BD000020020300B0
:10447C0008B5024B1B681B68019308BD1C020300A6
:10448C0008B5024B1B685B68019308BD1C02030056
:10449C0008B5024B1B681B6C019308BD1C02030082
:1044AC0008B5024B1B685B6C019308BD1C02030032
:1044BC00002340681A46FFF757BF406800220221CC
:1044CC00FFF762BF002240681146FFF755BF00227C
:1044DC0040681146FFF760BF002340681A46194632
:1044EC00FFF762BF002340681A461946FFF764BF06
:1044FC0040680021FFF788BF40680021FFF78CBFA0
:10450C004068002281F00101FFF75EBF4068002285
:10451C00FFF76ABF002240681146FFF76DBF00220B
:10452C0040681146FFF758BF2DE9F04395B014468B
:10453C000D46074600F0F6F900211C220DA800914B
:10454C0000F0B8FC40230C9320466B460CAA0021CB
:10455C00FFF7FAFE044600284BD102460121686899
:10456C00FFF71AFF0221804622466868FFF714FF06
:10457C00009E81462146002E3BD0002939D173681C
:10458C00022B03D00A2B11D0F669F4E7B8F1000F17
:10459C00FAD0716906A8043107AD00F0F1F90FCD1E
:1045AC003C1D0FC42B6823704146EDE7B9F1000F99
:1045BC00EAD07469102201A800F07CFC06238DF867
:1045CC00143001AD04F108031834186859682A46F0
:1045DC0003C20833A3421546F7D101A906A807ADBB
:1045EC0000F0AEF90FCD3C1D0FC42B68237049466B
:1045FC00CAE70098FFF7A0FE384615B0BDE8F08377
:10460C00024B034A1A6000225A607047B8E6032036
:10461C0024500B00002240681146FFF7BDBE00225B
:10462C0040681146FFF7D8BE002240681146FFF7DC
:10463C00E3BE40680022FFF7D7BE4068002281F03D
:10464C000101FFF7C1BE002340681A461946FFF767
:10465C00B3BE002340681A461946FFF7A5BE0022D8
:10466C0040681146FFF788BE406800220221FFF720
:10467C008BBE002340681A46FFF776BE024B04221D
:10468C005A60024A1A607047C0E6032060500B0063
:10469C0070474174704708B5007CFFF7EDFD20EAC8
:1046AC00E07008BD08B5007CFFF7BEFD20EAE070A5
:1046BC0008BD08B5007CFFF7C7FD40EAE07008BDF7
:1046CC0008B5007CFFF7B8FD40EAE07008BD007C3F
:1046DC00FFF7C2BD37B5457C04462DB1207C03B035
:1046EC00BDE83040FFF798BD007C0191FFF7C4FD99
:1046FC0000280199F2DC284603B030BD10B5142116
:10470C000446FFF7C2FC204610BD000010B54FF464
:10471C007A730446084611460022C4E90123044B6F
:10472C002360012320746374FFF7AEFD204610BD97
:10473C009C500B007047F8B5064615460C468F1872
:10474C00BC4206D0336814F8011B9B68304698476E
:10475C00F6E72846F8BD007C0022FFF715BD007C6B
:10476C000021FFF719BD007C0021FFF71DBD007C67
:10477C000021FFF721BD007C0021FFF725BD10B5FE
:10478C0014210446FFF781FC204610BD10B54FF4F0
:10479C007A73044608460021C4E90113034B2360D5
:1047AC0020741146FFF720FD204610BDCC500B00A5
:1047BC00417470477047704708B50021007CFFF7C3
:1047CC00CBFC40EAE07008BD08B50121007CFFF786
:1047DC00C3FC40EAE07008BD08B5007CFFF7B4FCF0
:1047EC0020EAE07008BD08B5007CFFF7A5FC20EAC4
:1047FC00E07008BD13B50446007C0191FFF7A4FCE2
:10480C000028019901DC607C20B1207CFFF7ACFC16
:10481C0020EAE07002B010BD007CFFF7ADBC10B513
:10482C0014210446FFF731FC204610BD10B54FF49F
:10483C007A73044608460021C4E90113044B236033
:10484C000123207463741146FFF76EFC204610BDE3
:10485C00F4500B0010B514220446002100F02AFB82
:10486C00204610BD10B50F4C88B003A8FFF7F2FF1F
:10487C002178BFF35B8F11F001010FD1204601911C
:10488C00FFF705FC019948B103AA0748FFF7CEFFD3
:10489C002046FFF701FC054800F0F8FA024808B082
:1048AC0010BD00BFC8E60320CCE60320C1470B00B7
:1048BC00704710B518210446FFF7E7FB204610BDE2
:1048CC00F0B5037D062B8DB00E4600F104074FF0BA
:1048DC00000412D000F1080515F8011D0A2230461B
:1048EC0000F049F9AF42044419D0002CF4D02E2129
:1048FC00304600F03DF90444EEE72F236A46394672
:10490C000A208DF80040FFF7C7FC684600F008FB52
:10491C0033680246DB6869463046984704462046B1
:10492C000DB0F0BD10B5054B0446112240F8043B08
:10493C00002100F0BFFA204610BD00BF24510B002F
:10494C000346074A10B543F8042B01F1100251F845
:10495C00044B43F8044B9142F9D10A781A7010BDFC
:10496C0024510B0010B59DF8084044EA032343EA98
:10497C00024242EA016104234160037510BD00004C
:10498C0007B5064B0360CB7800938B784A7809788F
:10499C00FFF7E8FF03B05DF804FB00BF24510B00E8
:1049AC008A4210B507D0441A0298C01A4443501AD0
:1049BC0094FBF0F0184410BD014B1860704700BF19
:1049CC003CE6032008B50B4B43B1FFF74BFF0368E4
:1049DC001B699847002801DDAFF30080064B43B1FB
:1049EC0000F0A2F903681B699847002801DDAFF3BA
:1049FC00008008BD000000000000000008B5FFF7B3
:104A0C00E1FFFFF761FC014B186008BD34E70320A0
:104A1C000548064A064908B5121A00F03DFA054B3E
:104A2C00054A1A6008BD00BF00F4032004F40320FB
:104A3C0074520B0000F403201E1C279A07B50023A8
:104A4C0000931A466FF07701FFF708FD03B05DF88D
:104A5C0004FB000007B543880A2B08D0502B0BD160
:104A6C00094B1B684BB103B05DF804EB1847FFF71B
:104A7C00E5FF03B05DF804FB002300931A466FF0CA
:104A8C007701FFF7EBFCF4E7E4E6032010B51248DE
:104A9C000021FFF705FD114B1A68114B9A42114B7F
:104AAC000CBF012200221A7001D0FFF7B1FFFFF7F3
:104ABC0003FC044600F006FA0B4B13B12046AFF38F
:104ACC00008000210848FFF747FCBDE8104007486C
:104ADC000021FFF7B9BC00BFC5490B0000F403204F
:104AEC001E1C279AE0E6032000000000614A0B0020
:104AFC00014B00229A607047E8E60320024B1A68CB
:104B0C00024B1A60704700BF38E60320F8E603201A
:104B1C00014B024A1A607047FCE603204C510B0013
:104B2C00F8B506460D468F180024BD420CD03368EC
:104B3C0015F8011B9B6830469847031E01DB1C448B
:104B4C00F3E7002C08BF1C462046F8BD13B50446FD
:104B5C00084659B1019100F0E3F923680199DB682B
:104B6C000246204602B0BDE81040184702B010BD06
:104B7C0003689B68184730B58BB00023012A8DF869
:104B8C00243098BF0A2209AC0D46B1FBF2F101FBAF
:104B9C00125303F0FF03092B94BF30333733DBB2CE
:104BAC00AA4204F8013DEFD92146FFF7CFFF0BB025
:104BBC0030BD0000024800230360FFF775BB00BF47
:104BCC0000E70320054B02221A60054B054A9A6048
:104BDC000020C3E90000FFF727BC00BF10E703204B
:104BEC0004E703200000FFFF10B5044608462170BF
:104BFC00FFF702FB00236360204610BD00224068D3
:104C0C001146FFF7E9BB002240681146FFF7F4BBE1
:104C1C0040680022FFF7E8BB4068002281F00101E8
:104C2C00FFF7D2BB002340681A461946FFF7C4BBF6
:104C3C00002340681A461946FFF7B6BB00224068AD
:104C4C001146FFF7A9BB002240681146FFF794BB41
:104C5C00406800220221FFF797BB002340681A46E8
:104C6C00FFF782BB024B03225A60024A1A6070475C
:104C7C0014E7032058510B007047000038B520256D
:104C8C00142304460360856005610649284600F03C
:104C9C00FBF804496060284600F0F6F8E060204616
:104CAC0038BD00BF8C510B0030B50E4D2978BFF3C9
:104CBC005B8F11F0010487B011D12846FFF7E7F99B
:104CCC0068B101A8FFF7DAFF01AA21460648FFF7F1
:104CDC005DFD2846FFF7E0F9044800F0D7F80248DC
:104CEC0007B030BD1CE7032020E70320854C0B00E8
:104CFC007047000038B5044614252A46002100F000
:104D0C00D9F825804025074925812846258200F0C1
:104D1C00BBF804496060284600F0B6F8E060204615
:104D2C0038BD00BF8C510B0030B50E4D2978BFF348
:104D3C005B8F11F0010487B011D12846FFF7A7F95A
:104D4C0068B101A8FFF7D6FF01AA21460648FFF774
:104D5C00DDFC2846FFF7A0F9044800F097F802485C
:104D6C0007B030BD38E703203CE70320FD4C0B00B7
:104D7C00232813B502D9002002B010BDA0F10B03FB
:104D8C00022B1AD8174C2178BFF35B8F11F001015D
:104D9C000BD120460191FFF77AF9019928B11248FD
:104DAC00FFF722FF2046FFF777F90F4B1878FFF734
:104DBC002BFA0028DFD10120DEE7012809D8FFF704
:104DCC0073FF0021007CFFF707FA80F00100C0B2EE
:104DDC00D2E709380128EED8FFF7A6FF007CFFF7D1
:104DEC0043FAF2E750E7032054E70320232838B5B1
:104DFC0004460D460AD8FF2908D0FFF7B9FF28B1A1
:104E0C0029462046BDE83840FFF76EBA38BD0D285C
:104E1C0010B504469CBF0E34A4B22046FFF7A8FF81
:104E2C0050B103212046FFF757FA032804D120463E
:104E3C00BDE81040FFF770BA002010BD38B504462D
:104E4C000D46FFF795FFF0B104212046FFF744FA19
:104E5C00042805D1A9B22046BDE83840FFF754BA62
:104E6C0002212046FFF738FA02280CD12046FFF722
:104E7C0043FA012801D0042805D129462046BDE873
:104E8C003840FFF751BA38BDFFF7FDB80023014693
:104E9C001A46184600F04CB80A44914200F1FF3310
:104EAC0000D1704710B511F8014B03F8014F914236
:104EBC00F9D110BD02440346934200D1704703F868
:104ECC00011BF9E738B5104B1D68AB6B0446B3B941
:104EDC001820FFF7CDFA0246A86320B90B4B0C48FB
:104EEC004221FFF7D5FA0B490B4BC0E900130B4BD2
:104EFC0083600B23838100210120C2E90401AB6B89
:104F0C0000221C615A6138BD3CE603208D510B0018
:104F1C00A4510B000E33CDAB34126DE6ECDE050064
:104F2C00034613F8012B002AFBD1181A01387047DD
:104F3C002DE9F843DFF8B8800646D8F800001F4684
:104F4C000D46914600F056F8254B1C6834B9254C9B
:104F5C001C60254B13B11B68C4F8883063681F2B89
:104F6C0007DDD8F8000000F047F84FF0FF30BDE83F
:104F7C00F8834EB3D4F8880088B91C4B23B9D8F801
:104F8C00000000F038F8F0E74FF48470FFF770FA87
:104F9C000028F4D00023C0E94033C4F888006368CB
:104FAC0040F8239001229A4000EB8301D0F80031A5
:104FBC001343C0F80031022EC1F8807002BFD0F844
:104FCC0004311343C0F804316368D8F800005A1C4C
:104FDC000233626044F8235000F00EF80020C6E75C
:104FEC00E8E703205CE70320000000007D440B0091
:104FFC00A0E6032070477047704700001D400B006F
:10500C0059400B0081400B0085400B000000000054
:10501C000000000000000000BD440B00C7440B0062
:10502C00D1440B00DB440B00E5440B00F1440B00B6
:10503C00FD440B0005450B000D450B0019450B00FD
:10504C0021450B002B450B0035450B0000000000E3
:10505C00000000007F460B0075460B006B460B00F2
:10506C0021460B005F460B0053460B00FD440B0022
:10507C0005450B0047460B003F460B0035460B0021
:10508C002B460B0035450B00000000000000000013
:10509C009D460B0009470B00E1460B002D4B0B0006
:1050AC00B1460B00CD460B00BF460B00DB460B0098
:1050BC009F460B00A3460B00000000000000000000
:1050CC0041470B008B470B0063470B0043470B001A
:1050DC006B470B0073470B007B470B0083470B00A0
:1050EC000000000000000000C3470B002B480B0021
:1050FC0001480B002D4B0B00F3470B00C5470B0071
:10510C00D5470B0025480B00E5470B00BD470B00AE
:10511C000000000000000000CD480B00BD480B0053
:10512C00BF480B0025592D256D2D25645425483A73
:10513C00254D3A2553257A0061736374696D6500BA
:10514C00617070000000000000000000674C0B0054
:10515C005D4C0B00534C0B00494C0B003D4C0B00B1
:10516C00314C0B00FD440B0005450B00254C0B008E
:10517C001D4C0B00134C0B00094C0B0035450B0060
:10518C00005245454E54206D616C6C6F63207375F5
:10519C0063636565646564002F6D6E742F776F7241
:1051AC006B73706163652F776F726B73706163657E
:1051BC002F4743432D31302D706970656C696E65D6
:1051CC002F6A656E6B696E732D4743432D31302DFD
:1051DC00706970656C696E652D34385F32303230B1
:1051EC00313132345F313630363138303634312F5C
:1051FC007372632F6E65776C69622F6E65776C695D
:10520C00622F6C6962632F7374646C69622F7261B4
:10521C006E642E63000000000D410B000D460B0068
:10522C0089460B00FD4A0B00094B0B001D4B0B0074
:10523C00C14B0B00D14B0B00714C0B00000000005C
:04524C00000000005E
:10525000040000001400000003000000474E550049
:10526000B0C207F4550AB9552681772040B111BC68
:045270001155C38A87
:045274000000000036
:10527800FF0F000044510B0040E60320000000002F
:105288000000000000000000000000000000000016
:105298000000000000000000000000000000000006
:1052A80000000000000000000000000000000000F6
:1052B80000000000000000000000000000000000E6
:1052C80000000000000000000000000000000000D6
:1052D800000000000000000000000000ECE70320D0
:1052E800FFFFFFFF00000102030405060708090A83
:1052F8000B0C0D0E0F101112131415161718191A7E
:085308001B1C1D1E1F202800C4
:045310007856341285
:04000003B000401CED
:00000001FF
